{"abi":[{"type":"constructor","inputs":[{"name":"initialNav","type":"uint256","internalType":"uint256"}],"stateMutability":"nonpayable"},{"type":"receive","stateMutability":"payable"},{"type":"function","name":"MINIMUM_MINT_SHARES","inputs":[],"outputs":[{"name":"","type":"uint256","internalType":"uint256"}],"stateMutability":"view"},{"type":"function","name":"allowance","inputs":[{"name":"owner","type":"address","internalType":"address"},{"name":"spender","type":"address","internalType":"address"}],"outputs":[{"name":"","type":"uint256","internalType":"uint256"}],"stateMutability":"view"},{"type":"function","name":"approve","inputs":[{"name":"spender","type":"address","internalType":"address"},{"name":"value","type":"uint256","internalType":"uint256"}],"outputs":[{"name":"","type":"bool","internalType":"bool"}],"stateMutability":"nonpayable"},{"type":"function","name":"balanceOf","inputs":[{"name":"account","type":"address","internalType":"address"}],"outputs":[{"name":"","type":"uint256","internalType":"uint256"}],"stateMutability":"view"},{"type":"function","name":"decimals","inputs":[],"outputs":[{"name":"","type":"uint8","internalType":"uint8"}],"stateMutability":"view"},{"type":"function","name":"mint","inputs":[],"outputs":[],"stateMutability":"payable"},{"type":"function","name":"name","inputs":[],"outputs":[{"name":"","type":"string","internalType":"string"}],"stateMutability":"view"},{"type":"function","name":"navPerShare","inputs":[],"outputs":[{"name":"","type":"uint256","internalType":"uint256"}],"stateMutability":"view"},{"type":"function","name":"owner","inputs":[],"outputs":[{"name":"","type":"address","internalType":"address"}],"stateMutability":"view"},{"type":"function","name":"pause","inputs":[],"outputs":[],"stateMutability":"nonpayable"},{"type":"function","name":"paused","inputs":[],"outputs":[{"name":"","type":"bool","internalType":"bool"}],"stateMutability":"view"},{"type":"function","name":"redeem","inputs":[{"name":"shareAmount","type":"uint256","internalType":"uint256"}],"outputs":[],"stateMutability":"nonpayable"},{"type":"function","name":"renounceOwnership","inputs":[],"outputs":[],"stateMutability":"nonpayable"},{"type":"function","name":"setNAV","inputs":[{"name":"newNav","type":"uint256","internalType":"uint256"}],"outputs":[],"stateMutability":"nonpayable"},{"type":"function","name":"symbol","inputs":[],"outputs":[{"name":"","type":"string","internalType":"string"}],"stateMutability":"view"},{"type":"function","name":"totalAssets","inputs":[],"outputs":[{"name":"","type":"uint256","internalType":"uint256"}],"stateMutability":"view"},{"type":"function","name":"totalSupply","inputs":[],"outputs":[{"name":"","type":"uint256","internalType":"uint256"}],"stateMutability":"view"},{"type":"function","name":"transfer","inputs":[{"name":"to","type":"address","internalType":"address"},{"name":"value","type":"uint256","internalType":"uint256"}],"outputs":[{"name":"","type":"bool","internalType":"bool"}],"stateMutability":"nonpayable"},{"type":"function","name":"transferFrom","inputs":[{"name":"from","type":"address","internalType":"address"},{"name":"to","type":"address","internalType":"address"},{"name":"value","type":"uint256","internalType":"uint256"}],"outputs":[{"name":"","type":"bool","internalType":"bool"}],"stateMutability":"nonpayable"},{"type":"function","name":"transferOwnership","inputs":[{"name":"newOwner","type":"address","internalType":"address"}],"outputs":[],"stateMutability":"nonpayable"},{"type":"function","name":"unpause","inputs":[],"outputs":[],"stateMutability":"nonpayable"},{"type":"event","name":"Approval","inputs":[{"name":"owner","type":"address","indexed":true,"internalType":"address"},{"name":"spender","type":"address","indexed":true,"internalType":"address"},{"name":"value","type":"uint256","indexed":false,"internalType":"uint256"}],"anonymous":false},{"type":"event","name":"Minted","inputs":[{"name":"user","type":"address","indexed":true,"internalType":"address"},{"name":"amountEth","type":"uint256","indexed":false,"internalType":"uint256"},{"name":"shares","type":"uint256","indexed":false,"internalType":"uint256"}],"anonymous":false},{"type":"event","name":"NAVUpdated","inputs":[{"name":"newNav","type":"uint256","indexed":false,"internalType":"uint256"},{"name":"updatedBy","type":"address","indexed":true,"internalType":"address"}],"anonymous":false},{"type":"event","name":"OwnershipTransferred","inputs":[{"name":"previousOwner","type":"address","indexed":true,"internalType":"address"},{"name":"newOwner","type":"address","indexed":true,"internalType":"address"}],"anonymous":false},{"type":"event","name":"Paused","inputs":[{"name":"account","type":"address","indexed":false,"internalType":"address"}],"anonymous":false},{"type":"event","name":"Redeemed","inputs":[{"name":"user","type":"address","indexed":true,"internalType":"address"},{"name":"shares","type":"uint256","indexed":false,"internalType":"uint256"},{"name":"amountEth","type":"uint256","indexed":false,"internalType":"uint256"}],"anonymous":false},{"type":"event","name":"Transfer","inputs":[{"name":"from","type":"address","indexed":true,"internalType":"address"},{"name":"to","type":"address","indexed":true,"internalType":"address"},{"name":"value","type":"uint256","indexed":false,"internalType":"uint256"}],"anonymous":false},{"type":"event","name":"Unpaused","inputs":[{"name":"account","type":"address","indexed":false,"internalType":"address"}],"anonymous":false},{"type":"error","name":"ERC20InsufficientAllowance","inputs":[{"name":"spender","type":"address","internalType":"address"},{"name":"allowance","type":"uint256","internalType":"uint256"},{"name":"needed","type":"uint256","internalType":"uint256"}]},{"type":"error","name":"ERC20InsufficientBalance","inputs":[{"name":"sender","type":"address","internalType":"address"},{"name":"balance","type":"uint256","internalType":"uint256"},{"name":"needed","type":"uint256","internalType":"uint256"}]},{"type":"error","name":"ERC20InvalidApprover","inputs":[{"name":"approver","type":"address","internalType":"address"}]},{"type":"error","name":"ERC20InvalidReceiver","inputs":[{"name":"receiver","type":"address","internalType":"address"}]},{"type":"error","name":"ERC20InvalidSender","inputs":[{"name":"sender","type":"address","internalType":"address"}]},{"type":"error","name":"ERC20InvalidSpender","inputs":[{"name":"spender","type":"address","internalType":"address"}]},{"type":"error","name":"EnforcedPause","inputs":[]},{"type":"error","name":"ExpectedPause","inputs":[]},{"type":"error","name":"OwnableInvalidOwner","inputs":[{"name":"owner","type":"address","internalType":"address"}]},{"type":"error","name":"OwnableUnauthorizedAccount","inputs":[{"name":"account","type":"address","internalType":"address"}]},{"type":"error","name":"ReentrancyGuardReentrantCall","inputs":[]}],"bytecode":{"object":"0x608060405234801561000f575f5ffd5b506040516122fb3803806122fb833981810160405281019061003191906102ab565b336040518060400160405280601781526020017f4672616e6b6c696e2054656d706c65746f6e2046756e640000000000000000008152506040518060400160405280600381526020017f465446000000000000000000000000000000000000000000000000000000000081525081600390816100ad919061050a565b5080600490816100bd919061050a565b5050505f73ffffffffffffffffffffffffffffffffffffffff168173ffffffffffffffffffffffffffffffffffffffff1603610130575f6040517f1e4fbdf70000000000000000000000000000000000000000000000000000000081526004016101279190610618565b60405180910390fd5b61013f816101b160201b60201c565b505f600560146101000a81548160ff02191690831515021790555060016006819055505f81116101a4576040517f08c379a000000000000000000000000000000000000000000000000000000000815260040161019b9061068b565b60405180910390fd5b80600781905550506106a9565b5f60055f9054906101000a900473ffffffffffffffffffffffffffffffffffffffff1690508160055f6101000a81548173ffffffffffffffffffffffffffffffffffffffff021916908373ffffffffffffffffffffffffffffffffffffffff1602179055508173ffffffffffffffffffffffffffffffffffffffff168173ffffffffffffffffffffffffffffffffffffffff167f8be0079c531659141344cd1fd0a4f28419497f9722a3daafe3b4186f6b6457e060405160405180910390a35050565b5f5ffd5b5f819050919050565b61028a81610278565b8114610294575f5ffd5b50565b5f815190506102a581610281565b92915050565b5f602082840312156102c0576102bf610274565b5b5f6102cd84828501610297565b91505092915050565b5f81519050919050565b7f4e487b71000000000000000000000000000000000000000000000000000000005f52604160045260245ffd5b7f4e487b71000000000000000000000000000000000000000000000000000000005f52602260045260245ffd5b5f600282049050600182168061035157607f821691505b6020821081036103645761036361030d565b5b50919050565b5f819050815f5260205f209050919050565b5f6020601f8301049050919050565b5f82821b905092915050565b5f600883026103c67fffffffffffffffffffffffffffffffffffffffffffffffffffffffffffffffff8261038b565b6103d0868361038b565b95508019841693508086168417925050509392505050565b5f819050919050565b5f61040b61040661040184610278565b6103e8565b610278565b9050919050565b5f819050919050565b610424836103f1565b61043861043082610412565b848454610397565b825550505050565b5f5f905090565b61044f610440565b61045a81848461041b565b505050565b5b8181101561047d576104725f82610447565b600181019050610460565b5050565b601f8211156104c2576104938161036a565b61049c8461037c565b810160208510156104ab578190505b6104bf6104b78561037c565b83018261045f565b50505b505050565b5f82821c905092915050565b5f6104e25f19846008026104c7565b1980831691505092915050565b5f6104fa83836104d3565b9150826002028217905092915050565b610513826102d6565b67ffffffffffffffff81111561052c5761052b6102e0565b5b610536825461033a565b610541828285610481565b5f60209050601f831160018114610572575f8415610560578287015190505b61056a85826104ef565b8655506105d1565b601f1984166105808661036a565b5f5b828110156105a757848901518255600182019150602085019450602081019050610582565b868310156105c457848901516105c0601f8916826104d3565b8355505b6001600288020188555050505b505050505050565b5f73ffffffffffffffffffffffffffffffffffffffff82169050919050565b5f610602826105d9565b9050919050565b610612816105f8565b82525050565b5f60208201905061062b5f830184610609565b92915050565b5f82825260208201905092915050565b7f496e697469616c204e4156206d757374206265203e20300000000000000000005f82015250565b5f610675601783610631565b915061068082610641565b602082019050919050565b5f6020820190508181035f8301526106a281610669565b9050919050565b611c45806106b65f395ff3fe60806040526004361061012d575f3560e01c80636d4a4c82116100aa57806395d89b411161006e57806395d89b4114610386578063a9059cbb146103b0578063ae097223146103ec578063db006a7514610416578063dd62ed3e1461043e578063f2fde38b1461047a57610134565b80636d4a4c82146102ca57806370a08231146102f4578063715018a6146103305780638456cb59146103465780638da5cb5b1461035c57610134565b806323b872dd116100f157806323b872dd146101fc578063313ce56714610238578063390b46fe146102625780633f4ba83a1461028a5780635c975abb146102a057610134565b806301e1d1141461013857806306fdde0314610162578063095ea7b31461018c5780631249c58b146101c857806318160ddd146101d257610134565b3661013457005b5f5ffd5b348015610143575f5ffd5b5061014c6104a2565b6040516101599190611506565b60405180910390f35b34801561016d575f5ffd5b506101766104a9565b604051610183919061158f565b60405180910390f35b348015610197575f5ffd5b506101b260048036038101906101ad9190611637565b610539565b6040516101bf919061168f565b60405180910390f35b6101d061055b565b005b3480156101dd575f5ffd5b506101e66106c0565b6040516101f39190611506565b60405180910390f35b348015610207575f5ffd5b50610222600480360381019061021d91906116a8565b6106c9565b60405161022f919061168f565b60405180910390f35b348015610243575f5ffd5b5061024c6106f7565b6040516102599190611713565b60405180910390f35b34801561026d575f5ffd5b506102886004803603810190610283919061172c565b6106ff565b005b348015610295575f5ffd5b5061029e6107a1565b005b3480156102ab575f5ffd5b506102b46107b3565b6040516102c1919061168f565b60405180910390f35b3480156102d5575f5ffd5b506102de6107c9565b6040516102eb9190611506565b60405180910390f35b3480156102ff575f5ffd5b5061031a60048036038101906103159190611757565b6107d0565b6040516103279190611506565b60405180910390f35b34801561033b575f5ffd5b50610344610815565b005b348015610351575f5ffd5b5061035a610828565b005b348015610367575f5ffd5b5061037061083a565b60405161037d9190611791565b60405180910390f35b348015610391575f5ffd5b5061039a610862565b6040516103a7919061158f565b60405180910390f35b3480156103bb575f5ffd5b506103d660048036038101906103d19190611637565b6108f2565b6040516103e3919061168f565b60405180910390f35b3480156103f7575f5ffd5b50610400610914565b60405161040d9190611506565b60405180910390f35b348015610421575f5ffd5b5061043c6004803603810190610437919061172c565b61091a565b005b348015610449575f5ffd5b50610464600480360381019061045f91906117aa565b610a86565b6040516104719190611506565b60405180910390f35b348015610485575f5ffd5b506104a0600480360381019061049b9190611757565b610b08565b005b5f47905090565b6060600380546104b890611815565b80601f01602080910402602001604051908101604052809291908181526020018280546104e490611815565b801561052f5780601f106105065761010080835404028352916020019161052f565b820191905f5260205f20905b81548152906001019060200180831161051257829003601f168201915b5050505050905090565b5f5f610543610b8c565b9050610550818585610b93565b600191505092915050565b610563610ba5565b61056b610be6565b5f600754116105af576040517f08c379a00000000000000000000000000000000000000000000000000000000081526004016105a69061188f565b60405180910390fd5b5f34116105f1576040517f08c379a00000000000000000000000000000000000000000000000000000000081526004016105e8906118f7565b60405180910390fd5b5f600754670de0b6b3a7640000346106099190611942565b61061391906119b0565b9050620f424081101561065b576040517f08c379a000000000000000000000000000000000000000000000000000000000815260040161065290611a2a565b60405180910390fd5b6106653382610c2c565b3373ffffffffffffffffffffffffffffffffffffffff167f25b428dfde728ccfaddad7e29e4ac23c24ed7fd1a6e3e3f91894a9a073f5dfff34836040516106ad929190611a48565b60405180910390a2506106be610cab565b565b5f600254905090565b5f5f6106d3610b8c565b90506106e0858285610cb5565b6106eb858585610d48565b60019150509392505050565b5f6012905090565b610707610e38565b5f8111610749576040517f08c379a000000000000000000000000000000000000000000000000000000000815260040161074090611ab9565b60405180910390fd5b806007819055503373ffffffffffffffffffffffffffffffffffffffff167f660edd7d74d42bb6b34f7eeb5c51d423603db22b56a0f828fd9ac16c51d9e312826040516107969190611506565b60405180910390a250565b6107a9610e38565b6107b1610ebf565b565b5f600560149054906101000a900460ff16905090565b620f424081565b5f5f5f8373ffffffffffffffffffffffffffffffffffffffff1673ffffffffffffffffffffffffffffffffffffffff1681526020019081526020015f20549050919050565b61081d610e38565b6108265f610f21565b565b610830610e38565b610838610fe4565b565b5f60055f9054906101000a900473ffffffffffffffffffffffffffffffffffffffff16905090565b60606004805461087190611815565b80601f016020809104026020016040519081016040528092919081815260200182805461089d90611815565b80156108e85780601f106108bf576101008083540402835291602001916108e8565b820191905f5260205f20905b8154815290600101906020018083116108cb57829003601f168201915b5050505050905090565b5f5f6108fc610b8c565b9050610909818585610d48565b600191505092915050565b60075481565b610922610ba5565b61092a610be6565b80610934336107d0565b1015610975576040517f08c379a000000000000000000000000000000000000000000000000000000000815260040161096c90611b21565b60405180910390fd5b5f670de0b6b3a76400006007548361098d9190611942565b61099791906119b0565b9050804710156109dc576040517f08c379a00000000000000000000000000000000000000000000000000000000081526004016109d390611b89565b60405180910390fd5b6109e63383611047565b3373ffffffffffffffffffffffffffffffffffffffff166108fc8290811502906040515f60405180830381858888f19350505050158015610a29573d5f5f3e3d5ffd5b503373ffffffffffffffffffffffffffffffffffffffff167ff3a670cd3af7d64b488926880889d08a8585a138ff455227af6737339a1ec2628383604051610a72929190611a48565b60405180910390a250610a83610cab565b50565b5f60015f8473ffffffffffffffffffffffffffffffffffffffff1673ffffffffffffffffffffffffffffffffffffffff1681526020019081526020015f205f8373ffffffffffffffffffffffffffffffffffffffff1673ffffffffffffffffffffffffffffffffffffffff1681526020019081526020015f2054905092915050565b610b10610e38565b5f73ffffffffffffffffffffffffffffffffffffffff168173ffffffffffffffffffffffffffffffffffffffff1603610b80575f6040517f1e4fbdf7000000000000000000000000000000000000000000000000000000008152600401610b779190611791565b60405180910390fd5b610b8981610f21565b50565b5f33905090565b610ba083838360016110c6565b505050565b610bad6107b3565b15610be4576040517fd93c066500000000000000000000000000000000000000000000000000000000815260040160405180910390fd5b565b600260065403610c22576040517f3ee5aeb500000000000000000000000000000000000000000000000000000000815260040160405180910390fd5b6002600681905550565b5f73ffffffffffffffffffffffffffffffffffffffff168273ffffffffffffffffffffffffffffffffffffffff1603610c9c575f6040517fec442f05000000000000000000000000000000000000000000000000000000008152600401610c939190611791565b60405180910390fd5b610ca75f8383611295565b5050565b6001600681905550565b5f610cc08484610a86565b90507fffffffffffffffffffffffffffffffffffffffffffffffffffffffffffffffff811015610d425781811015610d33578281836040517ffb8f41b2000000000000000000000000000000000000000000000000000000008152600401610d2a93929190611ba7565b60405180910390fd5b610d4184848484035f6110c6565b5b50505050565b5f73ffffffffffffffffffffffffffffffffffffffff168373ffffffffffffffffffffffffffffffffffffffff1603610db8575f6040517f96c6fd1e000000000000000000000000000000000000000000000000000000008152600401610daf9190611791565b60405180910390fd5b5f73ffffffffffffffffffffffffffffffffffffffff168273ffffffffffffffffffffffffffffffffffffffff1603610e28575f6040517fec442f05000000000000000000000000000000000000000000000000000000008152600401610e1f9190611791565b60405180910390fd5b610e33838383611295565b505050565b610e40610b8c565b73ffffffffffffffffffffffffffffffffffffffff16610e5e61083a565b73ffffffffffffffffffffffffffffffffffffffff1614610ebd57610e81610b8c565b6040517f118cdaa7000000000000000000000000000000000000000000000000000000008152600401610eb49190611791565b60405180910390fd5b565b610ec76114ae565b5f600560146101000a81548160ff0219169083151502179055507f5db9ee0a495bf2e6ff9c91a7834c1ba4fdd244a5e8aa4e537bd38aeae4b073aa610f0a610b8c565b604051610f179190611791565b60405180910390a1565b5f60055f9054906101000a900473ffffffffffffffffffffffffffffffffffffffff1690508160055f6101000a81548173ffffffffffffffffffffffffffffffffffffffff021916908373ffffffffffffffffffffffffffffffffffffffff1602179055508173ffffffffffffffffffffffffffffffffffffffff168173ffffffffffffffffffffffffffffffffffffffff167f8be0079c531659141344cd1fd0a4f28419497f9722a3daafe3b4186f6b6457e060405160405180910390a35050565b610fec610ba5565b6001600560146101000a81548160ff0219169083151502179055507f62e78cea01bee320cd4e420270b5ea74000d11b0c9f74754ebdbfc544b05a258611030610b8c565b60405161103d9190611791565b60405180910390a1565b5f73ffffffffffffffffffffffffffffffffffffffff168273ffffffffffffffffffffffffffffffffffffffff16036110b7575f6040517f96c6fd1e0000000000000000000000000000000000000000000000000000000081526004016110ae9190611791565b60405180910390fd5b6110c2825f83611295565b5050565b5f73ffffffffffffffffffffffffffffffffffffffff168473ffffffffffffffffffffffffffffffffffffffff1603611136575f6040517fe602df0500000000000000000000000000000000000000000000000000000000815260040161112d9190611791565b60405180910390fd5b5f73ffffffffffffffffffffffffffffffffffffffff168373ffffffffffffffffffffffffffffffffffffffff16036111a6575f6040517f94280d6200000000000000000000000000000000000000000000000000000000815260040161119d9190611791565b60405180910390fd5b8160015f8673ffffffffffffffffffffffffffffffffffffffff1673ffffffffffffffffffffffffffffffffffffffff1681526020019081526020015f205f8573ffffffffffffffffffffffffffffffffffffffff1673ffffffffffffffffffffffffffffffffffffffff1681526020019081526020015f2081905550801561128f578273ffffffffffffffffffffffffffffffffffffffff168473ffffffffffffffffffffffffffffffffffffffff167f8c5be1e5ebec7d5bd14f71427d1e84f3dd0314c0f7b2291e5b200ac8c7c3b925846040516112869190611506565b60405180910390a35b50505050565b5f73ffffffffffffffffffffffffffffffffffffffff168373ffffffffffffffffffffffffffffffffffffffff16036112e5578060025f8282546112d99190611bdc565b925050819055506113b3565b5f5f5f8573ffffffffffffffffffffffffffffffffffffffff1673ffffffffffffffffffffffffffffffffffffffff1681526020019081526020015f205490508181101561136e578381836040517fe450d38c00000000000000000000000000000000000000000000000000000000815260040161136593929190611ba7565b60405180910390fd5b8181035f5f8673ffffffffffffffffffffffffffffffffffffffff1673ffffffffffffffffffffffffffffffffffffffff1681526020019081526020015f2081905550505b5f73ffffffffffffffffffffffffffffffffffffffff168273ffffffffffffffffffffffffffffffffffffffff16036113fa578060025f8282540392505081905550611444565b805f5f8473ffffffffffffffffffffffffffffffffffffffff1673ffffffffffffffffffffffffffffffffffffffff1681526020019081526020015f205f82825401925050819055505b8173ffffffffffffffffffffffffffffffffffffffff168373ffffffffffffffffffffffffffffffffffffffff167fddf252ad1be2c89b69c2b068fc378daa952ba7f163c4a11628f55a4df523b3ef836040516114a19190611506565b60405180910390a3505050565b6114b66107b3565b6114ec576040517f8dfc202b00000000000000000000000000000000000000000000000000000000815260040160405180910390fd5b565b5f819050919050565b611500816114ee565b82525050565b5f6020820190506115195f8301846114f7565b92915050565b5f81519050919050565b5f82825260208201905092915050565b8281835e5f83830152505050565b5f601f19601f8301169050919050565b5f6115618261151f565b61156b8185611529565b935061157b818560208601611539565b61158481611547565b840191505092915050565b5f6020820190508181035f8301526115a78184611557565b905092915050565b5f5ffd5b5f73ffffffffffffffffffffffffffffffffffffffff82169050919050565b5f6115dc826115b3565b9050919050565b6115ec816115d2565b81146115f6575f5ffd5b50565b5f81359050611607816115e3565b92915050565b611616816114ee565b8114611620575f5ffd5b50565b5f813590506116318161160d565b92915050565b5f5f6040838503121561164d5761164c6115af565b5b5f61165a858286016115f9565b925050602061166b85828601611623565b9150509250929050565b5f8115159050919050565b61168981611675565b82525050565b5f6020820190506116a25f830184611680565b92915050565b5f5f5f606084860312156116bf576116be6115af565b5b5f6116cc868287016115f9565b93505060206116dd868287016115f9565b92505060406116ee86828701611623565b9150509250925092565b5f60ff82169050919050565b61170d816116f8565b82525050565b5f6020820190506117265f830184611704565b92915050565b5f60208284031215611741576117406115af565b5b5f61174e84828501611623565b91505092915050565b5f6020828403121561176c5761176b6115af565b5b5f611779848285016115f9565b91505092915050565b61178b816115d2565b82525050565b5f6020820190506117a45f830184611782565b92915050565b5f5f604083850312156117c0576117bf6115af565b5b5f6117cd858286016115f9565b92505060206117de858286016115f9565b9150509250929050565b7f4e487b71000000000000000000000000000000000000000000000000000000005f52602260045260245ffd5b5f600282049050600182168061182c57607f821691505b60208210810361183f5761183e6117e8565b5b50919050565b7f4e4156206e6f74207365740000000000000000000000000000000000000000005f82015250565b5f611879600b83611529565b915061188482611845565b602082019050919050565b5f6020820190508181035f8301526118a68161186d565b9050919050565b7f4d7573742073656e642045544820746f206d696e7400000000000000000000005f82015250565b5f6118e1601583611529565b91506118ec826118ad565b602082019050919050565b5f6020820190508181035f83015261190e816118d5565b9050919050565b7f4e487b71000000000000000000000000000000000000000000000000000000005f52601160045260245ffd5b5f61194c826114ee565b9150611957836114ee565b9250828202611965816114ee565b9150828204841483151761197c5761197b611915565b5b5092915050565b7f4e487b71000000000000000000000000000000000000000000000000000000005f52601260045260245ffd5b5f6119ba826114ee565b91506119c5836114ee565b9250826119d5576119d4611983565b5b828204905092915050565b7f4d696e7420746f6f20736d616c6c0000000000000000000000000000000000005f82015250565b5f611a14600e83611529565b9150611a1f826119e0565b602082019050919050565b5f6020820190508181035f830152611a4181611a08565b9050919050565b5f604082019050611a5b5f8301856114f7565b611a6860208301846114f7565b9392505050565b7f496e76616c6964204e41560000000000000000000000000000000000000000005f82015250565b5f611aa3600b83611529565b9150611aae82611a6f565b602082019050919050565b5f6020820190508181035f830152611ad081611a97565b9050919050565b7f4e6f7420656e6f756768207368617265730000000000000000000000000000005f82015250565b5f611b0b601183611529565b9150611b1682611ad7565b602082019050919050565b5f6020820190508181035f830152611b3881611aff565b9050919050565b7f496e73756666696369656e742045544820696e20636f6e7472616374000000005f82015250565b5f611b73601c83611529565b9150611b7e82611b3f565b602082019050919050565b5f6020820190508181035f830152611ba081611b67565b9050919050565b5f606082019050611bba5f830186611782565b611bc760208301856114f7565b611bd460408301846114f7565b949350505050565b5f611be6826114ee565b9150611bf1836114ee565b9250828201905080821115611c0957611c08611915565b5b9291505056fea2646970667358221220cd5c9418ce2ae62d4b35e5568a61d09f961d66a43b8e15d5d0433efc0259c3f164736f6c634300081c0033","linkReferences":{}},"methodIdentifiers":{"MINIMUM_MINT_SHARES()":"6d4a4c82","allowance(address,address)":"dd62ed3e","approve(address,uint256)":"095ea7b3","balanceOf(address)":"70a08231","decimals()":"313ce567","mint()":"1249c58b","name()":"06fdde03","navPerShare()":"ae097223","owner()":"8da5cb5b","pause()":"8456cb59","paused()":"5c975abb","redeem(uint256)":"db006a75","renounceOwnership()":"715018a6","setNAV(uint256)":"390b46fe","symbol()":"95d89b41","totalAssets()":"01e1d114","totalSupply()":"18160ddd","transfer(address,uint256)":"a9059cbb","transferFrom(address,address,uint256)":"23b872dd","transferOwnership(address)":"f2fde38b","unpause()":"3f4ba83a"},"id":28}